:100000000C9434000C943E000C943E000C943E0082
:100010000C943E000C943E000C943E000C943E0068
:100020000C943E000C943E000C943E000C943E0058
:100030000C943E000C943E000C943E000C943E0048
:100040000C943E000C943E000C943E000C943E0038
:100050000C943E000C943E000C943E000C943E0028
:100060000C943E000C943E0011241FBECFEFD8E04C
:10007000DEBFCDBF0E9466000C941E010C940000F0
:1000800080E480937C0081E880937A0008959091C9
:100090007C00987F90937C0090917C008770892BE6
:1000A00080937C0080917A00806480937A008091B4
:1000B0007A0084FFFCCF80917A00806180937A007F
:1000C0002091780030917900C90108950F931F9312
:1000D000CF93DF9380E480937C0081E880937A0063
:1000E000209A5098589A5198599A80918000836824
:1000F00080938000809181008B6080938100219AA1
:1001000040E951E0ECECF3E0ACECB2E0C9E9D1E05D
:100110000CEC10E0489986C0499984C0289A20E0E8
:1001200030E0CA010197F1F72F5F3F4F283C3105BE
:10013000C1F780917C00887F80937C0080917C0057
:1001400080937C0080917A00806480937A00809113
:100150007A0084FFFCCF80917A00806180937A00DE
:10016000609178007091790020E030E0CA01019739
:10017000F1F72F5F3F4F87E0203D3807B9F7693C23
:10018000710578F4109389000093880020E030E036
:10019000CA010197F1F72F5F3F4F87E0203D3807F5
:1001A000B9F7CB01825D90408352914078F4D093AF
:1001B0008900C093880020E030E0CA010197F1F780
:1001C0002F5F3F4F87E0203D3807B9F7CB018E5FA7
:1001D00091408F3B910578F4B0938900A0938800FB
:1001E00020E030E0CA010197F1F72F5F3F4F87E031
:1001F000203D3807B9F7665C72406B53714008F0D8
:1002000089CFF0938900E093880020E030E0CA01B4
:100210000197F1F72F5F3F4F87E0203D3807B9F78F
:10022000489B7ACF289820E030E0CA010197F1F787
:100230002F5F3F4F283C3105C1F76CCFF894FFCFBB
:00000001FF
